{
  "_format": "hh-sol-artifact-1",
  "contractName": "Zoe",
  "sourceName": "contracts/Zoe.sol",
  "abi": [
    {
      "inputs": [],
      "stateMutability": "nonpayable",
      "type": "constructor"
    },
    {
      "anonymous": false,
      "inputs": [
        {
          "indexed": true,
          "internalType": "address",
          "name": "customerAddress",
          "type": "address"
        },
        {
          "indexed": false,
          "internalType": "uint256",
          "name": "depositAmount",
          "type": "uint256"
        }
      ],
      "name": "Deposit",
      "type": "event"
    },
    {
      "anonymous": false,
      "inputs": [
        {
          "indexed": true,
          "internalType": "address",
          "name": "customerAddress",
          "type": "address"
        }
      ],
      "name": "Registered",
      "type": "event"
    },
    {
      "anonymous": false,
      "inputs": [
        {
          "indexed": false,
          "internalType": "address",
          "name": "from",
          "type": "address"
        },
        {
          "indexed": false,
          "internalType": "address",
          "name": "to",
          "type": "address"
        },
        {
          "indexed": false,
          "internalType": "uint256",
          "name": "transferAmount",
          "type": "uint256"
        }
      ],
      "name": "Transfer",
      "type": "event"
    },
    {
      "anonymous": false,
      "inputs": [
        {
          "indexed": true,
          "internalType": "address",
          "name": "customerAddress",
          "type": "address"
        },
        {
          "indexed": false,
          "internalType": "uint256",
          "name": "withdrawAmount",
          "type": "uint256"
        },
        {
          "indexed": false,
          "internalType": "uint256",
          "name": "newBalance",
          "type": "uint256"
        }
      ],
      "name": "Withdraw",
      "type": "event"
    },
    {
      "stateMutability": "payable",
      "type": "fallback"
    },
    {
      "inputs": [],
      "name": "bankName",
      "outputs": [
        {
          "internalType": "string",
          "name": "",
          "type": "string"
        }
      ],
      "stateMutability": "view",
      "type": "function"
    },
    {
      "inputs": [],
      "name": "bankOwner",
      "outputs": [
        {
          "internalType": "address",
          "name": "",
          "type": "address"
        }
      ],
      "stateMutability": "view",
      "type": "function"
    },
    {
      "inputs": [
        {
          "internalType": "address",
          "name": "",
          "type": "address"
        }
      ],
      "name": "customerBalances",
      "outputs": [
        {
          "internalType": "uint256",
          "name": "",
          "type": "uint256"
        }
      ],
      "stateMutability": "view",
      "type": "function"
    },
    {
      "inputs": [],
      "name": "depositMoney",
      "outputs": [
        {
          "internalType": "uint256",
          "name": "",
          "type": "uint256"
        }
      ],
      "stateMutability": "payable",
      "type": "function"
    },
    {
      "inputs": [],
      "name": "enrollCustomer",
      "outputs": [
        {
          "internalType": "bool",
          "name": "",
          "type": "bool"
        }
      ],
      "stateMutability": "nonpayable",
      "type": "function"
    },
    {
      "inputs": [],
      "name": "getBankBalance",
      "outputs": [
        {
          "internalType": "uint256",
          "name": "",
          "type": "uint256"
        }
      ],
      "stateMutability": "payable",
      "type": "function"
    },
    {
      "inputs": [],
      "name": "getCustomerBalance",
      "outputs": [
        {
          "internalType": "uint256",
          "name": "",
          "type": "uint256"
        }
      ],
      "stateMutability": "payable",
      "type": "function"
    },
    {
      "inputs": [
        {
          "internalType": "address",
          "name": "",
          "type": "address"
        }
      ],
      "name": "registered",
      "outputs": [
        {
          "internalType": "bool",
          "name": "",
          "type": "bool"
        }
      ],
      "stateMutability": "view",
      "type": "function"
    },
    {
      "inputs": [
        {
          "internalType": "string",
          "name": "_name",
          "type": "string"
        }
      ],
      "name": "setBankName",
      "outputs": [],
      "stateMutability": "nonpayable",
      "type": "function"
    },
    {
      "inputs": [
        {
          "internalType": "address",
          "name": "to",
          "type": "address"
        },
        {
          "internalType": "uint256",
          "name": "transferAmount",
          "type": "uint256"
        }
      ],
      "name": "transferMoney",
      "outputs": [
        {
          "internalType": "bool",
          "name": "",
          "type": "bool"
        }
      ],
      "stateMutability": "nonpayable",
      "type": "function"
    },
    {
      "inputs": [
        {
          "internalType": "uint256",
          "name": "withdrawAmount",
          "type": "uint256"
        }
      ],
      "name": "withdrawMoney",
      "outputs": [
        {
          "internalType": "uint256",
          "name": "",
          "type": "uint256"
        }
      ],
      "stateMutability": "nonpayable",
      "type": "function"
    },
    {
      "stateMutability": "payable",
      "type": "receive"
    }
  ],
  "bytecode": "0x608060405234801561001057600080fd5b50600080546001600160a01b03191633179055610a47806100326000396000f3fe6080604052600436106100b45760003560e01c8063791d66a11161006e578063b2dd5c071161004b578063b2dd5c07146101a9578063e147aaa7146101d9578063fee666ad1461021157005b8063791d66a11461015f5780637b83b50b1461018c578063a853409a1461019457005b8063548769211161009c57806354876921146100fa578063701426901461011a578063736b84ae1461013a57005b806316c05aa2146100bd57806327d35801146100d857005b366100bb57005b005b6100c5610231565b6040519081526020015b60405180910390f35b3480156100e457600080fd5b506100ed61037c565b6040516100cf91906107f4565b34801561010657600080fd5b506100c5610115366004610849565b61040a565b34801561012657600080fd5b506100bb610135366004610878565b61050c565b34801561014657600080fd5b5061014f61057d565b60405190151581526020016100cf565b34801561016b57600080fd5b506100c561017a366004610945565b60026020526000908152604090205481565b6100c56105cb565b336000908152600260205260409020546100c5565b3480156101b557600080fd5b5061014f6101c4366004610945565b60036020526000908152604090205460ff1681565b3480156101e557600080fd5b506000546101f9906001600160a01b031681565b6040516001600160a01b0390911681526020016100cf565b34801561021d57600080fd5b5061014f61022c366004610967565b61062b565b3360009081526003602052604081205460ff16151560011461029a5760405162461bcd60e51b815260206004820152601a60248201527f437573746f6d6572206973206e6f74207265676973746572656400000000000060448201526064015b60405180910390fd5b3461030d5760405162461bcd60e51b815260206004820152602660248201527f596f7520646f6e2774206861766520656e6f756768206d6f6e657920746f206460448201527f65706f73697400000000000000000000000000000000000000000000000000006064820152608401610291565b33600090815260026020526040812081815534908261032c83826109a7565b909155505060405134815233907fe1fffcc4923d04b559f4d29a8bfc6cda04eb5b0d3c460751c2402c5c5cc9109c906020015b60405180910390a250503360009081526002602052604090205490565b60018054610389906109bf565b80601f01602080910402602001604051908101604052809291908181526020018280546103b5906109bf565b80156104025780601f106103d757610100808354040283529160200191610402565b820191906000526020600020905b8154815290600101906020018083116103e557829003601f168201915b505050505081565b336000908152600260205260408120548211156104695760405162461bcd60e51b815260206004820152601260248201527f696e73756666696369656e742066756e647300000000000000000000000000006044820152606401610291565b33600090815260026020526040812080548492906104889084906109fa565b9091555050600080546040516001600160a01b039091169184156108fc02918591818181858888f193505050501580156104c6573d6000803e3d6000fd5b5033600081815260026020908152604091829020548251868152918201527ff279e6a1f5e320cca91135676d9cb6e44ca8a08c0b88342bcdb1144f6511b568910161035f565b6000546001600160a01b031633146105665760405162461bcd60e51b815260206004820181905260248201527f596f75277265206e6f7420746865206f776e6572206f66207468652062616e6b6044820152606401610291565b805161057990600190602084019061075b565b5050565b60405160009033907f2d3734a8e47ac8316e500ac231c90a6e1848ca2285f40d07eaa52005e4b3a0e9908390a250336000908152600360205260409020805460ff1916600190811790915590565b600080546001600160a01b031633146106265760405162461bcd60e51b815260206004820181905260248201527f596f75277265206e6f7420746865206f776e6572206f66207468652062616e6b6044820152606401610291565b504790565b3360009081526002602052604081205482111561068a5760405162461bcd60e51b815260206004820152601260248201527f696e73756666696369656e742066756e647300000000000000000000000000006044820152606401610291565b33600090815260026020526040812080548492906106a99084906109fa565b90915550506001600160a01b038316600090815260026020526040812080548492906106d69084906109a7565b9091555050604051339083156108fc029084906000818181858888f19350505050158015610708573d6000803e3d6000fd5b50604080513381526001600160a01b03851660208201529081018390527fddf252ad1be2c89b69c2b068fc378daa952ba7f163c4a11628f55a4df523b3ef9060600160405180910390a150600192915050565b828054610767906109bf565b90600052602060002090601f01602090048101928261078957600085556107cf565b82601f106107a257805160ff19168380011785556107cf565b828001600101855582156107cf579182015b828111156107cf5782518255916020019190600101906107b4565b506107db9291506107df565b5090565b5b808211156107db57600081556001016107e0565b600060208083528351808285015260005b8181101561082157858101830151858201604001528201610805565b81811115610833576000604083870101525b50601f01601f1916929092016040019392505050565b60006020828403121561085b57600080fd5b5035919050565b634e487b7160e01b600052604160045260246000fd5b60006020828403121561088a57600080fd5b813567ffffffffffffffff808211156108a257600080fd5b818401915084601f8301126108b657600080fd5b8135818111156108c8576108c8610862565b604051601f8201601f19908116603f011681019083821181831017156108f0576108f0610862565b8160405282815287602084870101111561090957600080fd5b826020860160208301376000928101602001929092525095945050505050565b80356001600160a01b038116811461094057600080fd5b919050565b60006020828403121561095757600080fd5b61096082610929565b9392505050565b6000806040838503121561097a57600080fd5b61098383610929565b946020939093013593505050565b634e487b7160e01b600052601160045260246000fd5b600082198211156109ba576109ba610991565b500190565b600181811c908216806109d357607f821691505b602082108114156109f457634e487b7160e01b600052602260045260246000fd5b50919050565b600082821015610a0c57610a0c610991565b50039056fea2646970667358221220b01474e16168bbd2640c55d3e4bf6c63335a8086438e9b60e19dfc3ea8a687e164736f6c63430008090033",
  "linkReferences": {},
  "deployedLinkReferences": {}
}